{
  "_format": "hh-sol-artifact-1",
  "contractName": "NFTmy",
  "sourceName": "contracts/NFTmy.sol",
  "abi": [
    {
      "inputs": [],
      "stateMutability": "payable",
      "type": "constructor"
    },
    {
      "anonymous": false,
      "inputs": [
        {
          "indexed": true,
          "internalType": "address",
          "name": "owner",
          "type": "address"
        },
        {
          "indexed": true,
          "internalType": "address",
          "name": "approved",
          "type": "address"
        },
        {
          "indexed": true,
          "internalType": "uint256",
          "name": "tokenId",
          "type": "uint256"
        }
      ],
      "name": "Approval",
      "type": "event"
    },
    {
      "anonymous": false,
      "inputs": [
        {
          "indexed": true,
          "internalType": "address",
          "name": "owner",
          "type": "address"
        },
        {
          "indexed": true,
          "internalType": "address",
          "name": "operator",
          "type": "address"
        },
        {
          "indexed": false,
          "internalType": "bool",
          "name": "approved",
          "type": "bool"
        }
      ],
      "name": "ApprovalForAll",
      "type": "event"
    },
    {
      "anonymous": false,
      "inputs": [
        {
          "indexed": true,
          "internalType": "address",
          "name": "previousOwner",
          "type": "address"
        },
        {
          "indexed": true,
          "internalType": "address",
          "name": "newOwner",
          "type": "address"
        }
      ],
      "name": "OwnershipTransferred",
      "type": "event"
    },
    {
      "anonymous": false,
      "inputs": [
        {
          "indexed": false,
          "internalType": "address",
          "name": "account",
          "type": "address"
        }
      ],
      "name": "Paused",
      "type": "event"
    },
    {
      "anonymous": false,
      "inputs": [
        {
          "indexed": true,
          "internalType": "address",
          "name": "from",
          "type": "address"
        },
        {
          "indexed": true,
          "internalType": "address",
          "name": "to",
          "type": "address"
        },
        {
          "indexed": true,
          "internalType": "uint256",
          "name": "tokenId",
          "type": "uint256"
        }
      ],
      "name": "Transfer",
      "type": "event"
    },
    {
      "anonymous": false,
      "inputs": [
        {
          "indexed": false,
          "internalType": "address",
          "name": "account",
          "type": "address"
        }
      ],
      "name": "Unpaused",
      "type": "event"
    },
    {
      "inputs": [
        {
          "internalType": "string",
          "name": "newURIupdate",
          "type": "string"
        },
        {
          "internalType": "uint256",
          "name": "id",
          "type": "uint256"
        }
      ],
      "name": "UpdateNewURI",
      "outputs": [],
      "stateMutability": "nonpayable",
      "type": "function"
    },
    {
      "inputs": [
        {
          "internalType": "address",
          "name": "",
          "type": "address"
        }
      ],
      "name": "addressToMints",
      "outputs": [
        {
          "internalType": "uint256",
          "name": "_numberOfAuthorMintsByAddress",
          "type": "uint256"
        },
        {
          "internalType": "uint256",
          "name": "_numberOfMintsByAddress",
          "type": "uint256"
        }
      ],
      "stateMutability": "view",
      "type": "function"
    },
    {
      "inputs": [
        {
          "internalType": "address",
          "name": "to",
          "type": "address"
        },
        {
          "internalType": "uint256",
          "name": "tokenId",
          "type": "uint256"
        }
      ],
      "name": "approve",
      "outputs": [],
      "stateMutability": "nonpayable",
      "type": "function"
    },
    {
      "inputs": [
        {
          "internalType": "address",
          "name": "owner",
          "type": "address"
        }
      ],
      "name": "balanceOf",
      "outputs": [
        {
          "internalType": "uint256",
          "name": "",
          "type": "uint256"
        }
      ],
      "stateMutability": "view",
      "type": "function"
    },
    {
      "inputs": [
        {
          "internalType": "uint256",
          "name": "_small",
          "type": "uint256"
        },
        {
          "internalType": "uint256",
          "name": "_medium",
          "type": "uint256"
        },
        {
          "internalType": "uint256",
          "name": "_large",
          "type": "uint256"
        },
        {
          "internalType": "uint256",
          "name": "_ultra",
          "type": "uint256"
        },
        {
          "internalType": "uint256",
          "name": "_mega",
          "type": "uint256"
        }
      ],
      "name": "countBox",
      "outputs": [
        {
          "internalType": "uint256",
          "name": "count",
          "type": "uint256"
        },
        {
          "internalType": "uint256",
          "name": "small",
          "type": "uint256"
        },
        {
          "internalType": "uint256",
          "name": "medium",
          "type": "uint256"
        },
        {
          "internalType": "uint256",
          "name": "large",
          "type": "uint256"
        },
        {
          "internalType": "uint256",
          "name": "ultra",
          "type": "uint256"
        },
        {
          "internalType": "uint256",
          "name": "mega",
          "type": "uint256"
        }
      ],
      "stateMutability": "payable",
      "type": "function"
    },
    {
      "inputs": [],
      "name": "freezeMetadata",
      "outputs": [],
      "stateMutability": "nonpayable",
      "type": "function"
    },
    {
      "inputs": [
        {
          "internalType": "uint256",
          "name": "tokenId",
          "type": "uint256"
        }
      ],
      "name": "getApproved",
      "outputs": [
        {
          "internalType": "address",
          "name": "",
          "type": "address"
        }
      ],
      "stateMutability": "view",
      "type": "function"
    },
    {
      "inputs": [
        {
          "internalType": "address",
          "name": "owner",
          "type": "address"
        },
        {
          "internalType": "address",
          "name": "operator",
          "type": "address"
        }
      ],
      "name": "isApprovedForAll",
      "outputs": [
        {
          "internalType": "bool",
          "name": "",
          "type": "bool"
        }
      ],
      "stateMutability": "view",
      "type": "function"
    },
    {
      "inputs": [],
      "name": "isPublicMintEnabled",
      "outputs": [
        {
          "internalType": "bool",
          "name": "",
          "type": "bool"
        }
      ],
      "stateMutability": "view",
      "type": "function"
    },
    {
      "inputs": [],
      "name": "maxPerWallet",
      "outputs": [
        {
          "internalType": "uint256",
          "name": "",
          "type": "uint256"
        }
      ],
      "stateMutability": "view",
      "type": "function"
    },
    {
      "inputs": [],
      "name": "maxSupply",
      "outputs": [
        {
          "internalType": "uint256",
          "name": "",
          "type": "uint256"
        }
      ],
      "stateMutability": "view",
      "type": "function"
    },
    {
      "inputs": [],
      "name": "max_box_Large",
      "outputs": [
        {
          "internalType": "uint256",
          "name": "",
          "type": "uint256"
        }
      ],
      "stateMutability": "view",
      "type": "function"
    },
    {
      "inputs": [],
      "name": "max_box_Medium",
      "outputs": [
        {
          "internalType": "uint256",
          "name": "",
          "type": "uint256"
        }
      ],
      "stateMutability": "view",
      "type": "function"
    },
    {
      "inputs": [],
      "name": "max_box_Mega",
      "outputs": [
        {
          "internalType": "uint256",
          "name": "",
          "type": "uint256"
        }
      ],
      "stateMutability": "view",
      "type": "function"
    },
    {
      "inputs": [],
      "name": "max_box_Small",
      "outputs": [
        {
          "internalType": "uint256",
          "name": "",
          "type": "uint256"
        }
      ],
      "stateMutability": "view",
      "type": "function"
    },
    {
      "inputs": [],
      "name": "max_box_Ultra",
      "outputs": [
        {
          "internalType": "uint256",
          "name": "",
          "type": "uint256"
        }
      ],
      "stateMutability": "view",
      "type": "function"
    },
    {
      "inputs": [],
      "name": "metadataIsFrozen",
      "outputs": [
        {
          "internalType": "bool",
          "name": "",
          "type": "bool"
        }
      ],
      "stateMutability": "view",
      "type": "function"
    },
    {
      "inputs": [
        {
          "internalType": "uint256",
          "name": "count",
          "type": "uint256"
        },
        {
          "internalType": "uint256",
          "name": "small",
          "type": "uint256"
        },
        {
          "internalType": "uint256",
          "name": "medium",
          "type": "uint256"
        },
        {
          "internalType": "uint256",
          "name": "large",
          "type": "uint256"
        },
        {
          "internalType": "uint256",
          "name": "ultra",
          "type": "uint256"
        },
        {
          "internalType": "uint256",
          "name": "mega",
          "type": "uint256"
        }
      ],
      "name": "mintNFT",
      "outputs": [],
      "stateMutability": "payable",
      "type": "function"
    },
    {
      "inputs": [],
      "name": "mintPrice",
      "outputs": [
        {
          "internalType": "uint256",
          "name": "",
          "type": "uint256"
        }
      ],
      "stateMutability": "view",
      "type": "function"
    },
    {
      "inputs": [],
      "name": "name",
      "outputs": [
        {
          "internalType": "string",
          "name": "",
          "type": "string"
        }
      ],
      "stateMutability": "view",
      "type": "function"
    },
    {
      "inputs": [],
      "name": "number_of_Reserved",
      "outputs": [
        {
          "internalType": "uint256",
          "name": "",
          "type": "uint256"
        }
      ],
      "stateMutability": "view",
      "type": "function"
    },
    {
      "inputs": [],
      "name": "owner",
      "outputs": [
        {
          "internalType": "address",
          "name": "",
          "type": "address"
        }
      ],
      "stateMutability": "view",
      "type": "function"
    },
    {
      "inputs": [
        {
          "internalType": "uint256",
          "name": "tokenId",
          "type": "uint256"
        }
      ],
      "name": "ownerOf",
      "outputs": [
        {
          "internalType": "address",
          "name": "",
          "type": "address"
        }
      ],
      "stateMutability": "view",
      "type": "function"
    },
    {
      "inputs": [],
      "name": "paused",
      "outputs": [
        {
          "internalType": "bool",
          "name": "",
          "type": "bool"
        }
      ],
      "stateMutability": "view",
      "type": "function"
    },
    {
      "inputs": [],
      "name": "renounceOwnership",
      "outputs": [],
      "stateMutability": "nonpayable",
      "type": "function"
    },
    {
      "inputs": [
        {
          "internalType": "address",
          "name": "from",
          "type": "address"
        },
        {
          "internalType": "address",
          "name": "to",
          "type": "address"
        },
        {
          "internalType": "uint256",
          "name": "tokenId",
          "type": "uint256"
        }
      ],
      "name": "safeTransferFrom",
      "outputs": [],
      "stateMutability": "nonpayable",
      "type": "function"
    },
    {
      "inputs": [
        {
          "internalType": "address",
          "name": "from",
          "type": "address"
        },
        {
          "internalType": "address",
          "name": "to",
          "type": "address"
        },
        {
          "internalType": "uint256",
          "name": "tokenId",
          "type": "uint256"
        },
        {
          "internalType": "bytes",
          "name": "_data",
          "type": "bytes"
        }
      ],
      "name": "safeTransferFrom",
      "outputs": [],
      "stateMutability": "nonpayable",
      "type": "function"
    },
    {
      "inputs": [
        {
          "internalType": "address",
          "name": "operator",
          "type": "address"
        },
        {
          "internalType": "bool",
          "name": "approved",
          "type": "bool"
        }
      ],
      "name": "setApprovalForAll",
      "outputs": [],
      "stateMutability": "nonpayable",
      "type": "function"
    },
    {
      "inputs": [
        {
          "internalType": "bool",
          "name": "isPublicMintEnabled_",
          "type": "bool"
        }
      ],
      "name": "setIsPublicMintEnabled",
      "outputs": [],
      "stateMutability": "nonpayable",
      "type": "function"
    },
    {
      "inputs": [
        {
          "internalType": "bytes4",
          "name": "interfaceId",
          "type": "bytes4"
        }
      ],
      "name": "supportsInterface",
      "outputs": [
        {
          "internalType": "bool",
          "name": "",
          "type": "bool"
        }
      ],
      "stateMutability": "view",
      "type": "function"
    },
    {
      "inputs": [],
      "name": "symbol",
      "outputs": [
        {
          "internalType": "string",
          "name": "",
          "type": "string"
        }
      ],
      "stateMutability": "view",
      "type": "function"
    },
    {
      "inputs": [
        {
          "internalType": "uint256",
          "name": "index",
          "type": "uint256"
        }
      ],
      "name": "tokenByIndex",
      "outputs": [
        {
          "internalType": "uint256",
          "name": "",
          "type": "uint256"
        }
      ],
      "stateMutability": "view",
      "type": "function"
    },
    {
      "inputs": [
        {
          "internalType": "address",
          "name": "owner",
          "type": "address"
        },
        {
          "internalType": "uint256",
          "name": "index",
          "type": "uint256"
        }
      ],
      "name": "tokenOfOwnerByIndex",
      "outputs": [
        {
          "internalType": "uint256",
          "name": "",
          "type": "uint256"
        }
      ],
      "stateMutability": "view",
      "type": "function"
    },
    {
      "inputs": [
        {
          "internalType": "uint256",
          "name": "tokenId",
          "type": "uint256"
        }
      ],
      "name": "tokenURI",
      "outputs": [
        {
          "internalType": "string",
          "name": "",
          "type": "string"
        }
      ],
      "stateMutability": "view",
      "type": "function"
    },
    {
      "inputs": [],
      "name": "totalSupply",
      "outputs": [
        {
          "internalType": "uint256",
          "name": "",
          "type": "uint256"
        }
      ],
      "stateMutability": "view",
      "type": "function"
    },
    {
      "inputs": [
        {
          "internalType": "address",
          "name": "from",
          "type": "address"
        },
        {
          "internalType": "address",
          "name": "to",
          "type": "address"
        },
        {
          "internalType": "uint256",
          "name": "tokenId",
          "type": "uint256"
        }
      ],
      "name": "transferFrom",
      "outputs": [],
      "stateMutability": "nonpayable",
      "type": "function"
    },
    {
      "inputs": [
        {
          "internalType": "address",
          "name": "newOwner",
          "type": "address"
        }
      ],
      "name": "transferOwnership",
      "outputs": [],
      "stateMutability": "nonpayable",
      "type": "function"
    },
    {
      "inputs": [],
      "name": "withdraw",
      "outputs": [],
      "stateMutability": "nonpayable",
      "type": "function"
    },
    {
      "inputs": [],
      "name": "withdrawWallet",
      "outputs": [
        {
          "internalType": "address payable",
          "name": "",
          "type": "address"
        }
      ],
      "stateMutability": "view",
      "type": "function"
    }
  ],
  "bytecode": "0x6016805460ff19908116600117909155601b80549091169055601060808181526f26bca7232a1021b7b63632b1ba34b7b760811b60a0908152610100604052600260c090815261052560f41b60e05291926200005e916000916200012e565b508051620000749060019060208401906200012e565b505050620000916200008b620000d860201b60201c565b620000dc565b600a805460ff60a01b1916905566071afd498d0000600d556107d0600e556003600f5560006015819055601081905560118190556012819055601381905560145562000211565b3390565b600a80546001600160a01b038381166001600160a01b0319831681179093556040519116919082907f8be0079c531659141344cd1fd0a4f28419497f9722a3daafe3b4186f6b6457e090600090a35050565b8280546200013c90620001d4565b90600052602060002090601f016020900481019282620001605760008555620001ab565b82601f106200017b57805160ff1916838001178555620001ab565b82800160010185558215620001ab579182015b82811115620001ab5782518255916020019190600101906200018e565b50620001b9929150620001bd565b5090565b5b80821115620001b95760008155600101620001be565b600181811c90821680620001e957607f821691505b602082108114156200020b57634e487b7160e01b600052602260045260246000fd5b50919050565b61322280620002216000396000f3fe60806040526004361061029f5760003560e01c80636352211e1161016e578063a60a4382116100cb578063d111515d1161007f578063e985e9c511610064578063e985e9c5146106df578063f2fde38b14610728578063fe0078ae1461074857600080fd5b8063d111515d146106b4578063d5abeb01146106c957600080fd5b8063c4746419116100b0578063c474641914610664578063c87b56dd1461067a578063cf880fea1461069a57600080fd5b8063a60a43821461062e578063b88d4fde1461064457600080fd5b806385d178f4116101225780638da5cb5b116101075780638da5cb5b146105db57806395d89b41146105f9578063a22cb4651461060e57600080fd5b806385d178f41461059b57806387f8b4c5146105bb57600080fd5b80636817c76c116101535780636817c76c1461055057806370a0823114610566578063715018a61461058657600080fd5b80636352211e146104e757806363820f231461050757600080fd5b80632373ac221161021c57806342842e0e116101d05780634759827f116101b55780634759827f146104955780634f6ccce7146104a85780635c975abb146104c857600080fd5b806342842e0e1461045f578063453c23101461047f57600080fd5b806327d8104e1161020157806327d8104e146104145780632f745c591461042a5780633ccfd60b1461044a57600080fd5b80632373ac22146103d457806323b872dd146103f457600080fd5b8063081812fc11610273578063108d0ea611610258578063108d0ea61461039357806318160ddd146103a95780631ccba2c9146103be57600080fd5b8063081812fc14610339578063095ea7b31461037157600080fd5b8062a0634f146102a45780630116bc2d146102cd57806301ffc9a7146102f757806306fdde0314610317575b600080fd5b3480156102b057600080fd5b506102ba60155481565b6040519081526020015b60405180910390f35b3480156102d957600080fd5b506016546102e79060ff1681565b60405190151581526020016102c4565b34801561030357600080fd5b506102e7610312366004612eef565b610788565b34801561032357600080fd5b5061032c610799565b6040516102c491906130a8565b34801561034557600080fd5b50610359610354366004612f7d565b61082b565b6040516001600160a01b0390911681526020016102c4565b34801561037d57600080fd5b5061039161038c366004612eac565b6108c5565b005b34801561039f57600080fd5b506102ba60105481565b3480156103b557600080fd5b506008546102ba565b3480156103ca57600080fd5b506102ba60135481565b3480156103e057600080fd5b506103916103ef366004612ed5565b6109f7565b34801561040057600080fd5b5061039161040f366004612dcf565b610a64565b34801561042057600080fd5b506102ba60115481565b34801561043657600080fd5b506102ba610445366004612eac565b610aeb565b34801561045657600080fd5b50610391610b93565b34801561046b57600080fd5b5061039161047a366004612dcf565b610c93565b34801561048b57600080fd5b506102ba600f5481565b6103916104a3366004612fcf565b610cae565b3480156104b457600080fd5b506102ba6104c3366004612f7d565b6112e9565b3480156104d457600080fd5b50600a54600160a01b900460ff166102e7565b3480156104f357600080fd5b50610359610502366004612f7d565b61139b565b34801561051357600080fd5b5061053b610522366004612d83565b6019602052600090815260409020805460019091015482565b604080519283526020830191909152016102c4565b34801561055c57600080fd5b506102ba600d5481565b34801561057257600080fd5b506102ba610581366004612d83565b611426565b34801561059257600080fd5b506103916114c0565b3480156105a757600080fd5b50601854610359906001600160a01b031681565b3480156105c757600080fd5b506103916105d6366004612f27565b611526565b3480156105e757600080fd5b50600a546001600160a01b0316610359565b34801561060557600080fd5b5061032c6115eb565b34801561061a57600080fd5b50610391610629366004612e83565b6115fa565b34801561063a57600080fd5b506102ba60125481565b34801561065057600080fd5b5061039161065f366004612e0a565b611605565b34801561067057600080fd5b506102ba60145481565b34801561068657600080fd5b5061032c610695366004612f7d565b611693565b3480156106a657600080fd5b50601b546102e79060ff1681565b3480156106c057600080fd5b5061039161169e565b3480156106d557600080fd5b506102ba600e5481565b3480156106eb57600080fd5b506102e76106fa366004612d9d565b6001600160a01b03918216600090815260056020908152604080832093909416825291909152205460ff1690565b34801561073457600080fd5b50610391610743366004612d83565b61175a565b61075b610756366004612f95565b611839565b604080519687526020870195909552938501929092526060840152608083015260a082015260c0016102c4565b600061079382611b88565b92915050565b6060600080546107a89061312a565b80601f01602080910402602001604051908101604052809291908181526020018280546107d49061312a565b80156108215780601f106107f657610100808354040283529160200191610821565b820191906000526020600020905b81548152906001019060200180831161080457829003601f168201915b5050505050905090565b6000818152600260205260408120546001600160a01b03166108a95760405162461bcd60e51b815260206004820152602c60248201527f4552433732313a20617070726f76656420717565727920666f72206e6f6e657860448201526b34b9ba32b73a103a37b5b2b760a11b60648201526084015b60405180910390fd5b506000908152600460205260409020546001600160a01b031690565b60006108d08261139b565b9050806001600160a01b0316836001600160a01b0316141561095a5760405162461bcd60e51b815260206004820152602160248201527f4552433732313a20617070726f76616c20746f2063757272656e74206f776e6560448201527f720000000000000000000000000000000000000000000000000000000000000060648201526084016108a0565b336001600160a01b0382161480610976575061097681336106fa565b6109e85760405162461bcd60e51b815260206004820152603860248201527f4552433732313a20617070726f76652063616c6c6572206973206e6f74206f7760448201527f6e6572206e6f7220617070726f76656420666f7220616c6c000000000000000060648201526084016108a0565b6109f28383611bc6565b505050565b600a546001600160a01b03163314610a515760405162461bcd60e51b815260206004820181905260248201527f4f776e61626c653a2063616c6c6572206973206e6f7420746865206f776e657260448201526064016108a0565b6016805460ff1916911515919091179055565b610a6e3382611c41565b610ae05760405162461bcd60e51b815260206004820152603160248201527f4552433732313a207472616e736665722063616c6c6572206973206e6f74206f60448201527f776e6572206e6f7220617070726f76656400000000000000000000000000000060648201526084016108a0565b6109f2838383611d38565b6000610af683611426565b8210610b6a5760405162461bcd60e51b815260206004820152602b60248201527f455243373231456e756d657261626c653a206f776e657220696e646578206f7560448201527f74206f6620626f756e647300000000000000000000000000000000000000000060648201526084016108a0565b506001600160a01b03919091166000908152600660209081526040808320938352929052205490565b600a546001600160a01b03163314610bed5760405162461bcd60e51b815260206004820181905260248201527f4f776e61626c653a2063616c6c6572206973206e6f7420746865206f776e657260448201526064016108a0565b6018546040516000916001600160a01b03169047908381818185875af1925050503d8060008114610c3a576040519150601f19603f3d011682016040523d82523d6000602084013e610c3f565b606091505b5050905080610c905760405162461bcd60e51b815260206004820152600f60248201527f7769746864726177206661696c6564000000000000000000000000000000000060448201526064016108a0565b50565b6109f283838360405180602001604052806000815250611605565b60165460ff16610d005760405162461bcd60e51b815260206004820152601360248201527f6d696e74696e67206e6f7420656e61626c65640000000000000000000000000060448201526064016108a0565b600f5433600090815260196020526040902060010154610d2090886130bb565b1115610d6e5760405162461bcd60e51b815260206004820152601f60248201527f45786365656473206d6178696d756d20616c6c6f7761626c65206d696e74730060448201526064016108a0565b3360009081526019602052604081206001018054889290610d909084906130bb565b90915550600090505b86811015610ee957610daf600c80546001019055565b6000610dba600c5490565b9050601554601454601354601254601154601054610dd891906130bb565b610de291906130bb565b610dec91906130bb565b610df691906130bb565b610e0091906130bb565b81118015610e105750600e548111155b610e2a57634e487b7160e01b600052600160045260246000fd5b610e343382611f1d565b6000818152601a602052604090208054610ed6918391610e539061312a565b80601f0160208091040260200160405190810160405280929190818152602001828054610e7f9061312a565b8015610ecc5780601f10610ea157610100808354040283529160200191610ecc565b820191906000526020600020905b815481529060010190602001808311610eaf57829003601f168201915b5050505050611f37565b5080610ee181613165565b915050610d99565b50600085118015610efa5750600285105b15610f1d57600160106000828254610f1291906130bb565b90915550610fb59050565b600185118015610f2d5750600385105b15610f5f57600160106000828254610f4591906130bb565b92505081905550600160106000828254610f1291906130bb565b8460031415610fb557600160106000828254610f7b91906130bb565b92505081905550600160106000828254610f9591906130bb565b92505081905550600160106000828254610faf91906130bb565b90915550505b600084118015610fc55750600284105b15610fe857600160116000828254610fdd91906130bb565b909155506110809050565b600184118015610ff85750600384105b1561102a5760016011600082825461101091906130bb565b92505081905550600160116000828254610fdd91906130bb565b83600314156110805760016011600082825461104691906130bb565b9250508190555060016011600082825461106091906130bb565b9250508190555060016011600082825461107a91906130bb565b90915550505b6000831180156110905750600283105b156110b3576001601260008282546110a891906130bb565b9091555061114b9050565b6001831180156110c35750600383105b156110f5576001601260008282546110db91906130bb565b925050819055506001601260008282546110a891906130bb565b826003141561114b5760016012600082825461111191906130bb565b9250508190555060016012600082825461112b91906130bb565b9250508190555060016012600082825461114591906130bb565b90915550505b60008211801561115b5750600282105b1561117e5760016013600082825461117391906130bb565b909155506112169050565b60018211801561118e5750600382105b156111c0576001601360008282546111a691906130bb565b9250508190555060016013600082825461117391906130bb565b8160031415611216576001601360008282546111dc91906130bb565b925050819055506001601360008282546111f691906130bb565b9250508190555060016013600082825461121091906130bb565b90915550505b6000811180156112265750600281105b156112495760016014600082825461123e91906130bb565b909155506112e19050565b6001811180156112595750600381105b1561128b5760016014600082825461127191906130bb565b9250508190555060016014600082825461123e91906130bb565b80600314156112e1576001601460008282546112a791906130bb565b925050819055506001601460008282546112c191906130bb565b925050819055506001601460008282546112db91906130bb565b90915550505b505050505050565b60006112f460085490565b82106113685760405162461bcd60e51b815260206004820152602c60248201527f455243373231456e756d657261626c653a20676c6f62616c20696e646578206f60448201527f7574206f6620626f756e6473000000000000000000000000000000000000000060648201526084016108a0565b6008828154811061138957634e487b7160e01b600052603260045260246000fd5b90600052602060002001549050919050565b6000818152600260205260408120546001600160a01b0316806107935760405162461bcd60e51b815260206004820152602960248201527f4552433732313a206f776e657220717565727920666f72206e6f6e657869737460448201527f656e7420746f6b656e000000000000000000000000000000000000000000000060648201526084016108a0565b60006001600160a01b0382166114a45760405162461bcd60e51b815260206004820152602a60248201527f4552433732313a2062616c616e636520717565727920666f7220746865207a6560448201527f726f20616464726573730000000000000000000000000000000000000000000060648201526084016108a0565b506001600160a01b031660009081526003602052604090205490565b600a546001600160a01b0316331461151a5760405162461bcd60e51b815260206004820181905260248201527f4f776e61626c653a2063616c6c6572206973206e6f7420746865206f776e657260448201526064016108a0565b6115246000611fe0565b565b601b5460ff16156115795760405162461bcd60e51b815260206004820152601e60248201527f4d65746164617461206973207065726d616e656e746c792066726f7a656e000060448201526064016108a0565b6000818152600260205260409020546001600160a01b03166115dd5760405162461bcd60e51b815260206004820152601460248201527f546f6b656e20646f6573206e6f7420657869742100000000000000000000000060448201526064016108a0565b6115e78183611f37565b5050565b6060600180546107a89061312a565b6115e733838361203f565b61160f3383611c41565b6116815760405162461bcd60e51b815260206004820152603160248201527f4552433732313a207472616e736665722063616c6c6572206973206e6f74206f60448201527f776e6572206e6f7220617070726f76656400000000000000000000000000000060648201526084016108a0565b61168d8484848461210e565b50505050565b60606107938261218c565b600a546001600160a01b031633146116f85760405162461bcd60e51b815260206004820181905260248201527f4f776e61626c653a2063616c6c6572206973206e6f7420746865206f776e657260448201526064016108a0565b601b5460ff161561174b5760405162461bcd60e51b815260206004820152601a60248201527f4d6574616461746120697320616c72656164792066726f7a656e00000000000060448201526064016108a0565b601b805460ff19166001179055565b600a546001600160a01b031633146117b45760405162461bcd60e51b815260206004820181905260248201527f4f776e61626c653a2063616c6c6572206973206e6f7420746865206f776e657260448201526064016108a0565b6001600160a01b0381166118305760405162461bcd60e51b815260206004820152602660248201527f4f776e61626c653a206e6577206f776e657220697320746865207a65726f206160448201527f646472657373000000000000000000000000000000000000000000000000000060648201526084016108a0565b610c9081611fe0565b600080600080600080600387898b8d8f61185391906130bb565b61185d91906130bb565b61186791906130bb565b61187191906130bb565b11156118e55760405162461bcd60e51b815260206004820152603b60248201527f45786365656473204d6178696d756d204d696e6974696e67204c696d6974207460448201527f6f74616c20596f752043616e204d696e6974204a75737420332021000000000060648201526084016108a0565b61058b6010548c6118f691906130bb565b11156119525760405162461bcd60e51b815260206004820152602560248201527f45786365656473206d6178696d756d20534d414c4c20616c6c6f7761626c65206044820152646d696e747360d81b60648201526084016108a0565b61015e6011548b61196391906130bb565b11156119d75760405162461bcd60e51b815260206004820152602660248201527f45786365656473206d6178696d756d204d454449554d20616c6c6f7761626c6560448201527f206d696e7473000000000000000000000000000000000000000000000000000060648201526084016108a0565b60876012548a6119e791906130bb565b1115611a435760405162461bcd60e51b815260206004820152602560248201527f45786365656473206d6178696d756d204c4152474520616c6c6f7761626c65206044820152646d696e747360d81b60648201526084016108a0565b600460135489611a5391906130bb565b1115611aaf5760405162461bcd60e51b815260206004820152602560248201527f45786365656473206d6178696d756d20554c54524120616c6c6f7761626c65206044820152646d696e747360d81b60648201526084016108a0565b601e60145488611abf91906130bb565b1115611b325760405162461bcd60e51b8152602060048201526024808201527f45786365656473206d6178696d756d204d45474120616c6c6f7761626c65206d60448201527f696e74730000000000000000000000000000000000000000000000000000000060648201526084016108a0565b5089935088925087915086905085808284611b4d87896130bb565b611b5791906130bb565b611b6191906130bb565b611b6b91906130bb565b9550611b7b868c8c8c8c8c610cae565b9550955095509550955095565b60006001600160e01b031982167f780e9d6300000000000000000000000000000000000000000000000000000000148061079357506107938261233c565b6000818152600460205260409020805473ffffffffffffffffffffffffffffffffffffffff19166001600160a01b0384169081179091558190611c088261139b565b6001600160a01b03167f8c5be1e5ebec7d5bd14f71427d1e84f3dd0314c0f7b2291e5b200ac8c7c3b92560405160405180910390a45050565b6000818152600260205260408120546001600160a01b0316611cba5760405162461bcd60e51b815260206004820152602c60248201527f4552433732313a206f70657261746f7220717565727920666f72206e6f6e657860448201526b34b9ba32b73a103a37b5b2b760a11b60648201526084016108a0565b6000611cc58361139b565b9050806001600160a01b0316846001600160a01b03161480611d0c57506001600160a01b0380821660009081526005602090815260408083209388168352929052205460ff165b80611d305750836001600160a01b0316611d258461082b565b6001600160a01b0316145b949350505050565b826001600160a01b0316611d4b8261139b565b6001600160a01b031614611dc75760405162461bcd60e51b815260206004820152602560248201527f4552433732313a207472616e736665722066726f6d20696e636f72726563742060448201527f6f776e657200000000000000000000000000000000000000000000000000000060648201526084016108a0565b6001600160a01b038216611e425760405162461bcd60e51b8152602060048201526024808201527f4552433732313a207472616e7366657220746f20746865207a65726f2061646460448201527f726573730000000000000000000000000000000000000000000000000000000060648201526084016108a0565b611e4d8383836123d7565b611e58600082611bc6565b6001600160a01b0383166000908152600360205260408120805460019290611e819084906130e7565b90915550506001600160a01b0382166000908152600360205260408120805460019290611eaf9084906130bb565b9091555050600081815260026020526040808220805473ffffffffffffffffffffffffffffffffffffffff19166001600160a01b0386811691821790925591518493918716917fddf252ad1be2c89b69c2b068fc378daa952ba7f163c4a11628f55a4df523b3ef91a4505050565b6115e782826040518060200160405280600081525061243c565b6000828152600260205260409020546001600160a01b0316611fc15760405162461bcd60e51b815260206004820152602e60248201527f45524337323155524953746f726167653a2055524920736574206f66206e6f6e60448201527f6578697374656e7420746f6b656e00000000000000000000000000000000000060648201526084016108a0565b6000828152600b6020908152604090912082516109f292840190612c48565b600a80546001600160a01b0383811673ffffffffffffffffffffffffffffffffffffffff19831681179093556040519116919082907f8be0079c531659141344cd1fd0a4f28419497f9722a3daafe3b4186f6b6457e090600090a35050565b816001600160a01b0316836001600160a01b031614156120a15760405162461bcd60e51b815260206004820152601960248201527f4552433732313a20617070726f766520746f2063616c6c65720000000000000060448201526064016108a0565b6001600160a01b03838116600081815260056020908152604080832094871680845294825291829020805460ff191686151590811790915591519182527f17307eab39ab6107e8899845ad3d59bd9653f200f220920489ca2b5937696c31910160405180910390a3505050565b612119848484611d38565b612125848484846124ba565b61168d5760405162461bcd60e51b815260206004820152603260248201527f4552433732313a207472616e7366657220746f206e6f6e20455243373231526560448201527131b2b4bb32b91034b6b83632b6b2b73a32b960711b60648201526084016108a0565b6000818152600260205260409020546060906001600160a01b03166122195760405162461bcd60e51b815260206004820152603160248201527f45524337323155524953746f726167653a2055524920717565727920666f722060448201527f6e6f6e6578697374656e7420746f6b656e00000000000000000000000000000060648201526084016108a0565b6000828152600b6020526040812080546122329061312a565b80601f016020809104026020016040519081016040528092919081815260200182805461225e9061312a565b80156122ab5780601f10612280576101008083540402835291602001916122ab565b820191906000526020600020905b81548152906001019060200180831161228e57829003601f168201915b5050505050905060006122ee60408051808201909152601081527f7777772e6d792d736974652e636f6d2f00000000000000000000000000000000602082015290565b9050805160001415612301575092915050565b81511561233357808260405160200161231b92919061303d565b60405160208183030381529060405292505050919050565b611d3084612612565b60006001600160e01b031982167f80ac58cd00000000000000000000000000000000000000000000000000000000148061239f57506001600160e01b031982167f5b5e139f00000000000000000000000000000000000000000000000000000000145b8061079357507f01ffc9a7000000000000000000000000000000000000000000000000000000006001600160e01b0319831614610793565b600a54600160a01b900460ff16156124315760405162461bcd60e51b815260206004820152601060248201527f5061757361626c653a207061757365640000000000000000000000000000000060448201526064016108a0565b6109f283838361272d565b61244683836127e5565b61245360008484846124ba565b6109f25760405162461bcd60e51b815260206004820152603260248201527f4552433732313a207472616e7366657220746f206e6f6e20455243373231526560448201527131b2b4bb32b91034b6b83632b6b2b73a32b960711b60648201526084016108a0565b60006001600160a01b0384163b1561260757604051630a85bd0160e11b81526001600160a01b0385169063150b7a02906124fe90339089908890889060040161306c565b602060405180830381600087803b15801561251857600080fd5b505af1925050508015612548575060408051601f3d908101601f1916820190925261254591810190612f0b565b60015b6125ed573d808015612576576040519150601f19603f3d011682016040523d82523d6000602084013e61257b565b606091505b5080516125e55760405162461bcd60e51b815260206004820152603260248201527f4552433732313a207472616e7366657220746f206e6f6e20455243373231526560448201527131b2b4bb32b91034b6b83632b6b2b73a32b960711b60648201526084016108a0565b805181602001fd5b6001600160e01b031916630a85bd0160e11b149050611d30565b506001949350505050565b6000818152600260205260409020546060906001600160a01b031661269f5760405162461bcd60e51b815260206004820152602f60248201527f4552433732314d657461646174613a2055524920717565727920666f72206e6f60448201527f6e6578697374656e7420746f6b656e000000000000000000000000000000000060648201526084016108a0565b60006126db60408051808201909152601081527f7777772e6d792d736974652e636f6d2f00000000000000000000000000000000602082015290565b905060008151116126fb5760405180602001604052806000815250612726565b8061270584612940565b60405160200161271692919061303d565b6040516020818303038152906040525b9392505050565b6001600160a01b0383166127885761278381600880546000838152600960205260408120829055600182018355919091527ff3f7a9fe364faab93b216da50a3214154f22a0a2b415b23a84c8169e8b636ee30155565b6127ab565b816001600160a01b0316836001600160a01b0316146127ab576127ab8382612a8e565b6001600160a01b0382166127c2576109f281612b2b565b826001600160a01b0316826001600160a01b0316146109f2576109f28282612c04565b6001600160a01b03821661283b5760405162461bcd60e51b815260206004820181905260248201527f4552433732313a206d696e7420746f20746865207a65726f206164647265737360448201526064016108a0565b6000818152600260205260409020546001600160a01b0316156128a05760405162461bcd60e51b815260206004820152601c60248201527f4552433732313a20746f6b656e20616c7265616479206d696e7465640000000060448201526064016108a0565b6128ac600083836123d7565b6001600160a01b03821660009081526003602052604081208054600192906128d59084906130bb565b9091555050600081815260026020526040808220805473ffffffffffffffffffffffffffffffffffffffff19166001600160a01b03861690811790915590518392907fddf252ad1be2c89b69c2b068fc378daa952ba7f163c4a11628f55a4df523b3ef908290a45050565b60608161298057505060408051808201909152600181527f3000000000000000000000000000000000000000000000000000000000000000602082015290565b8160005b81156129aa578061299481613165565b91506129a39050600a836130d3565b9150612984565b60008167ffffffffffffffff8111156129d357634e487b7160e01b600052604160045260246000fd5b6040519080825280601f01601f1916602001820160405280156129fd576020820181803683370190505b5090505b8415611d3057612a126001836130e7565b9150612a1f600a86613180565b612a2a9060306130bb565b60f81b818381518110612a4d57634e487b7160e01b600052603260045260246000fd5b60200101907effffffffffffffffffffffffffffffffffffffffffffffffffffffffffffff1916908160001a905350612a87600a866130d3565b9450612a01565b60006001612a9b84611426565b612aa591906130e7565b600083815260076020526040902054909150808214612af8576001600160a01b03841660009081526006602090815260408083208584528252808320548484528184208190558352600790915290208190555b5060009182526007602090815260408084208490556001600160a01b039094168352600681528383209183525290812055565b600854600090612b3d906001906130e7565b60008381526009602052604081205460088054939450909284908110612b7357634e487b7160e01b600052603260045260246000fd5b906000526020600020015490508060088381548110612ba257634e487b7160e01b600052603260045260246000fd5b6000918252602080832090910192909255828152600990915260408082208490558582528120556008805480612be857634e487b7160e01b600052603160045260246000fd5b6001900381819060005260206000200160009055905550505050565b6000612c0f83611426565b6001600160a01b039093166000908152600660209081526040808320868452825280832085905593825260079052919091209190915550565b828054612c549061312a565b90600052602060002090601f016020900481019282612c765760008555612cbc565b82601f10612c8f57805160ff1916838001178555612cbc565b82800160010185558215612cbc579182015b82811115612cbc578251825591602001919060010190612ca1565b50612cc8929150612ccc565b5090565b5b80821115612cc85760008155600101612ccd565b600067ffffffffffffffff80841115612cfc57612cfc6131c0565b604051601f8501601f19908116603f01168101908282118183101715612d2457612d246131c0565b81604052809350858152868686011115612d3d57600080fd5b858560208301376000602087830101525050509392505050565b80356001600160a01b0381168114612d6e57600080fd5b919050565b80358015158114612d6e57600080fd5b600060208284031215612d94578081fd5b61272682612d57565b60008060408385031215612daf578081fd5b612db883612d57565b9150612dc660208401612d57565b90509250929050565b600080600060608486031215612de3578081fd5b612dec84612d57565b9250612dfa60208501612d57565b9150604084013590509250925092565b60008060008060808587031215612e1f578081fd5b612e2885612d57565b9350612e3660208601612d57565b925060408501359150606085013567ffffffffffffffff811115612e58578182fd5b8501601f81018713612e68578182fd5b612e7787823560208401612ce1565b91505092959194509250565b60008060408385031215612e95578182fd5b612e9e83612d57565b9150612dc660208401612d73565b60008060408385031215612ebe578182fd5b612ec783612d57565b946020939093013593505050565b600060208284031215612ee6578081fd5b61272682612d73565b600060208284031215612f00578081fd5b8135612726816131d6565b600060208284031215612f1c578081fd5b8151612726816131d6565b60008060408385031215612f39578182fd5b823567ffffffffffffffff811115612f4f578283fd5b8301601f81018513612f5f578283fd5b612f6e85823560208401612ce1565b95602094909401359450505050565b600060208284031215612f8e578081fd5b5035919050565b600080600080600060a08688031215612fac578081fd5b505083359560208501359550604085013594606081013594506080013592509050565b60008060008060008060c08789031215612fe7578081fd5b505084359660208601359650604086013595606081013595506080810135945060a0013592509050565b600081518084526130298160208601602086016130fe565b601f01601f19169290920160200192915050565b6000835161304f8184602088016130fe565b8351908301906130638183602088016130fe565b01949350505050565b60006001600160a01b0380871683528086166020840152508360408301526080606083015261309e6080830184613011565b9695505050505050565b6020815260006127266020830184613011565b600082198211156130ce576130ce613194565b500190565b6000826130e2576130e26131aa565b500490565b6000828210156130f9576130f9613194565b500390565b60005b83811015613119578181015183820152602001613101565b8381111561168d5750506000910152565b600181811c9082168061313e57607f821691505b6020821081141561315f57634e487b7160e01b600052602260045260246000fd5b50919050565b600060001982141561317957613179613194565b5060010190565b60008261318f5761318f6131aa565b500690565b634e487b7160e01b600052601160045260246000fd5b634e487b7160e01b600052601260045260246000fd5b634e487b7160e01b600052604160045260246000fd5b6001600160e01b031981168114610c9057600080fdfea26469706673582212206e9efa8f5764398f234d91a45b56c5f30b93dbee91718f8db5a74a74e376f17064736f6c63430008040033",
  "linkReferences": {},
  "deployedLinkReferences": {}
}