{
  "_format": "hh-sol-artifact-1",
  "contractName": "NFTmy",
  "sourceName": "contracts/NFTmy.sol",
  "abi": [
    {
      "inputs": [],
      "stateMutability": "payable",
      "type": "constructor"
    },
    {
      "anonymous": false,
      "inputs": [
        {
          "indexed": true,
          "internalType": "address",
          "name": "owner",
          "type": "address"
        },
        {
          "indexed": true,
          "internalType": "address",
          "name": "approved",
          "type": "address"
        },
        {
          "indexed": true,
          "internalType": "uint256",
          "name": "tokenId",
          "type": "uint256"
        }
      ],
      "name": "Approval",
      "type": "event"
    },
    {
      "anonymous": false,
      "inputs": [
        {
          "indexed": true,
          "internalType": "address",
          "name": "owner",
          "type": "address"
        },
        {
          "indexed": true,
          "internalType": "address",
          "name": "operator",
          "type": "address"
        },
        {
          "indexed": false,
          "internalType": "bool",
          "name": "approved",
          "type": "bool"
        }
      ],
      "name": "ApprovalForAll",
      "type": "event"
    },
    {
      "anonymous": false,
      "inputs": [
        {
          "indexed": true,
          "internalType": "address",
          "name": "previousOwner",
          "type": "address"
        },
        {
          "indexed": true,
          "internalType": "address",
          "name": "newOwner",
          "type": "address"
        }
      ],
      "name": "OwnershipTransferred",
      "type": "event"
    },
    {
      "anonymous": false,
      "inputs": [
        {
          "indexed": false,
          "internalType": "address",
          "name": "account",
          "type": "address"
        }
      ],
      "name": "Paused",
      "type": "event"
    },
    {
      "anonymous": false,
      "inputs": [
        {
          "indexed": true,
          "internalType": "address",
          "name": "from",
          "type": "address"
        },
        {
          "indexed": true,
          "internalType": "address",
          "name": "to",
          "type": "address"
        },
        {
          "indexed": true,
          "internalType": "uint256",
          "name": "tokenId",
          "type": "uint256"
        }
      ],
      "name": "Transfer",
      "type": "event"
    },
    {
      "anonymous": false,
      "inputs": [
        {
          "indexed": false,
          "internalType": "address",
          "name": "account",
          "type": "address"
        }
      ],
      "name": "Unpaused",
      "type": "event"
    },
    {
      "inputs": [
        {
          "internalType": "string",
          "name": "newURIupdate",
          "type": "string"
        },
        {
          "internalType": "uint256",
          "name": "id",
          "type": "uint256"
        },
        {
          "internalType": "string",
          "name": "name",
          "type": "string"
        },
        {
          "internalType": "string",
          "name": "description",
          "type": "string"
        },
        {
          "internalType": "string",
          "name": "externallink",
          "type": "string"
        }
      ],
      "name": "UpdateNewURI",
      "outputs": [],
      "stateMutability": "nonpayable",
      "type": "function"
    },
    {
      "inputs": [
        {
          "internalType": "address",
          "name": "",
          "type": "address"
        }
      ],
      "name": "addressToMints",
      "outputs": [
        {
          "internalType": "uint256",
          "name": "_numberOfAuthorMintsByAddress",
          "type": "uint256"
        },
        {
          "internalType": "uint256",
          "name": "_numberOfMintsByAddress",
          "type": "uint256"
        }
      ],
      "stateMutability": "view",
      "type": "function"
    },
    {
      "inputs": [
        {
          "internalType": "address",
          "name": "to",
          "type": "address"
        },
        {
          "internalType": "uint256",
          "name": "tokenId",
          "type": "uint256"
        }
      ],
      "name": "approve",
      "outputs": [],
      "stateMutability": "nonpayable",
      "type": "function"
    },
    {
      "inputs": [
        {
          "internalType": "uint256",
          "name": "",
          "type": "uint256"
        }
      ],
      "name": "attributes",
      "outputs": [
        {
          "internalType": "string",
          "name": "name",
          "type": "string"
        },
        {
          "internalType": "string",
          "name": "description",
          "type": "string"
        },
        {
          "internalType": "string",
          "name": "uri",
          "type": "string"
        },
        {
          "internalType": "string",
          "name": "image",
          "type": "string"
        }
      ],
      "stateMutability": "view",
      "type": "function"
    },
    {
      "inputs": [
        {
          "internalType": "address",
          "name": "owner",
          "type": "address"
        }
      ],
      "name": "balanceOf",
      "outputs": [
        {
          "internalType": "uint256",
          "name": "",
          "type": "uint256"
        }
      ],
      "stateMutability": "view",
      "type": "function"
    },
    {
      "inputs": [
        {
          "internalType": "uint256",
          "name": "boxID",
          "type": "uint256"
        },
        {
          "internalType": "uint256",
          "name": "right",
          "type": "uint256"
        },
        {
          "internalType": "uint256",
          "name": "left",
          "type": "uint256"
        },
        {
          "internalType": "uint256",
          "name": "top",
          "type": "uint256"
        },
        {
          "internalType": "uint256",
          "name": "bottom",
          "type": "uint256"
        }
      ],
      "name": "boxSizes",
      "outputs": [],
      "stateMutability": "nonpayable",
      "type": "function"
    },
    {
      "inputs": [
        {
          "internalType": "uint256",
          "name": "_small",
          "type": "uint256"
        },
        {
          "internalType": "uint256",
          "name": "_medium",
          "type": "uint256"
        },
        {
          "internalType": "uint256",
          "name": "_large",
          "type": "uint256"
        },
        {
          "internalType": "uint256",
          "name": "_ultra",
          "type": "uint256"
        },
        {
          "internalType": "uint256",
          "name": "_mega",
          "type": "uint256"
        }
      ],
      "name": "countBox",
      "outputs": [
        {
          "internalType": "uint256",
          "name": "count",
          "type": "uint256"
        },
        {
          "internalType": "uint256",
          "name": "small",
          "type": "uint256"
        },
        {
          "internalType": "uint256",
          "name": "medium",
          "type": "uint256"
        },
        {
          "internalType": "uint256",
          "name": "large",
          "type": "uint256"
        },
        {
          "internalType": "uint256",
          "name": "ultra",
          "type": "uint256"
        },
        {
          "internalType": "uint256",
          "name": "mega",
          "type": "uint256"
        }
      ],
      "stateMutability": "payable",
      "type": "function"
    },
    {
      "inputs": [],
      "name": "freezeMetadata",
      "outputs": [],
      "stateMutability": "nonpayable",
      "type": "function"
    },
    {
      "inputs": [
        {
          "internalType": "uint256",
          "name": "tokenId",
          "type": "uint256"
        }
      ],
      "name": "getApproved",
      "outputs": [
        {
          "internalType": "address",
          "name": "",
          "type": "address"
        }
      ],
      "stateMutability": "view",
      "type": "function"
    },
    {
      "inputs": [
        {
          "internalType": "uint256",
          "name": "id",
          "type": "uint256"
        }
      ],
      "name": "getBoxSizes",
      "outputs": [
        {
          "internalType": "uint256",
          "name": "",
          "type": "uint256"
        },
        {
          "internalType": "uint256",
          "name": "",
          "type": "uint256"
        },
        {
          "internalType": "uint256",
          "name": "",
          "type": "uint256"
        },
        {
          "internalType": "uint256",
          "name": "",
          "type": "uint256"
        },
        {
          "internalType": "uint256",
          "name": "",
          "type": "uint256"
        }
      ],
      "stateMutability": "view",
      "type": "function"
    },
    {
      "inputs": [
        {
          "internalType": "address",
          "name": "owner",
          "type": "address"
        },
        {
          "internalType": "address",
          "name": "operator",
          "type": "address"
        }
      ],
      "name": "isApprovedForAll",
      "outputs": [
        {
          "internalType": "bool",
          "name": "",
          "type": "bool"
        }
      ],
      "stateMutability": "view",
      "type": "function"
    },
    {
      "inputs": [],
      "name": "isPublicMintEnabled",
      "outputs": [
        {
          "internalType": "bool",
          "name": "",
          "type": "bool"
        }
      ],
      "stateMutability": "view",
      "type": "function"
    },
    {
      "inputs": [],
      "name": "maxPerWallet",
      "outputs": [
        {
          "internalType": "uint256",
          "name": "",
          "type": "uint256"
        }
      ],
      "stateMutability": "view",
      "type": "function"
    },
    {
      "inputs": [],
      "name": "maxSupply",
      "outputs": [
        {
          "internalType": "uint256",
          "name": "",
          "type": "uint256"
        }
      ],
      "stateMutability": "view",
      "type": "function"
    },
    {
      "inputs": [],
      "name": "max_box_Large",
      "outputs": [
        {
          "internalType": "uint256",
          "name": "",
          "type": "uint256"
        }
      ],
      "stateMutability": "view",
      "type": "function"
    },
    {
      "inputs": [],
      "name": "max_box_Medium",
      "outputs": [
        {
          "internalType": "uint256",
          "name": "",
          "type": "uint256"
        }
      ],
      "stateMutability": "view",
      "type": "function"
    },
    {
      "inputs": [],
      "name": "max_box_Mega",
      "outputs": [
        {
          "internalType": "uint256",
          "name": "",
          "type": "uint256"
        }
      ],
      "stateMutability": "view",
      "type": "function"
    },
    {
      "inputs": [],
      "name": "max_box_Small",
      "outputs": [
        {
          "internalType": "uint256",
          "name": "",
          "type": "uint256"
        }
      ],
      "stateMutability": "view",
      "type": "function"
    },
    {
      "inputs": [],
      "name": "max_box_Ultra",
      "outputs": [
        {
          "internalType": "uint256",
          "name": "",
          "type": "uint256"
        }
      ],
      "stateMutability": "view",
      "type": "function"
    },
    {
      "inputs": [],
      "name": "metadataIsFrozen",
      "outputs": [
        {
          "internalType": "bool",
          "name": "",
          "type": "bool"
        }
      ],
      "stateMutability": "view",
      "type": "function"
    },
    {
      "inputs": [
        {
          "internalType": "uint256",
          "name": "count",
          "type": "uint256"
        },
        {
          "internalType": "uint256",
          "name": "small",
          "type": "uint256"
        },
        {
          "internalType": "uint256",
          "name": "medium",
          "type": "uint256"
        },
        {
          "internalType": "uint256",
          "name": "large",
          "type": "uint256"
        },
        {
          "internalType": "uint256",
          "name": "ultra",
          "type": "uint256"
        },
        {
          "internalType": "uint256",
          "name": "mega",
          "type": "uint256"
        }
      ],
      "name": "mintNFT",
      "outputs": [],
      "stateMutability": "payable",
      "type": "function"
    },
    {
      "inputs": [],
      "name": "mintPrice",
      "outputs": [
        {
          "internalType": "uint256",
          "name": "",
          "type": "uint256"
        }
      ],
      "stateMutability": "view",
      "type": "function"
    },
    {
      "inputs": [],
      "name": "name",
      "outputs": [
        {
          "internalType": "string",
          "name": "",
          "type": "string"
        }
      ],
      "stateMutability": "view",
      "type": "function"
    },
    {
      "inputs": [],
      "name": "number_of_Reserved",
      "outputs": [
        {
          "internalType": "uint256",
          "name": "",
          "type": "uint256"
        }
      ],
      "stateMutability": "view",
      "type": "function"
    },
    {
      "inputs": [],
      "name": "owner",
      "outputs": [
        {
          "internalType": "address",
          "name": "",
          "type": "address"
        }
      ],
      "stateMutability": "view",
      "type": "function"
    },
    {
      "inputs": [
        {
          "internalType": "uint256",
          "name": "tokenId",
          "type": "uint256"
        }
      ],
      "name": "ownerOf",
      "outputs": [
        {
          "internalType": "address",
          "name": "",
          "type": "address"
        }
      ],
      "stateMutability": "view",
      "type": "function"
    },
    {
      "inputs": [],
      "name": "paused",
      "outputs": [
        {
          "internalType": "bool",
          "name": "",
          "type": "bool"
        }
      ],
      "stateMutability": "view",
      "type": "function"
    },
    {
      "inputs": [],
      "name": "renounceOwnership",
      "outputs": [],
      "stateMutability": "nonpayable",
      "type": "function"
    },
    {
      "inputs": [
        {
          "internalType": "address",
          "name": "from",
          "type": "address"
        },
        {
          "internalType": "address",
          "name": "to",
          "type": "address"
        },
        {
          "internalType": "uint256",
          "name": "tokenId",
          "type": "uint256"
        }
      ],
      "name": "safeTransferFrom",
      "outputs": [],
      "stateMutability": "nonpayable",
      "type": "function"
    },
    {
      "inputs": [
        {
          "internalType": "address",
          "name": "from",
          "type": "address"
        },
        {
          "internalType": "address",
          "name": "to",
          "type": "address"
        },
        {
          "internalType": "uint256",
          "name": "tokenId",
          "type": "uint256"
        },
        {
          "internalType": "bytes",
          "name": "_data",
          "type": "bytes"
        }
      ],
      "name": "safeTransferFrom",
      "outputs": [],
      "stateMutability": "nonpayable",
      "type": "function"
    },
    {
      "inputs": [
        {
          "internalType": "address",
          "name": "operator",
          "type": "address"
        },
        {
          "internalType": "bool",
          "name": "approved",
          "type": "bool"
        }
      ],
      "name": "setApprovalForAll",
      "outputs": [],
      "stateMutability": "nonpayable",
      "type": "function"
    },
    {
      "inputs": [
        {
          "internalType": "bool",
          "name": "isPublicMintEnabled_",
          "type": "bool"
        }
      ],
      "name": "setIsPublicMintEnabled",
      "outputs": [],
      "stateMutability": "nonpayable",
      "type": "function"
    },
    {
      "inputs": [
        {
          "internalType": "bytes4",
          "name": "interfaceId",
          "type": "bytes4"
        }
      ],
      "name": "supportsInterface",
      "outputs": [
        {
          "internalType": "bool",
          "name": "",
          "type": "bool"
        }
      ],
      "stateMutability": "view",
      "type": "function"
    },
    {
      "inputs": [],
      "name": "symbol",
      "outputs": [
        {
          "internalType": "string",
          "name": "",
          "type": "string"
        }
      ],
      "stateMutability": "view",
      "type": "function"
    },
    {
      "inputs": [
        {
          "internalType": "uint256",
          "name": "index",
          "type": "uint256"
        }
      ],
      "name": "tokenByIndex",
      "outputs": [
        {
          "internalType": "uint256",
          "name": "",
          "type": "uint256"
        }
      ],
      "stateMutability": "view",
      "type": "function"
    },
    {
      "inputs": [
        {
          "internalType": "address",
          "name": "owner",
          "type": "address"
        },
        {
          "internalType": "uint256",
          "name": "index",
          "type": "uint256"
        }
      ],
      "name": "tokenOfOwnerByIndex",
      "outputs": [
        {
          "internalType": "uint256",
          "name": "",
          "type": "uint256"
        }
      ],
      "stateMutability": "view",
      "type": "function"
    },
    {
      "inputs": [
        {
          "internalType": "uint256",
          "name": "tokenId",
          "type": "uint256"
        }
      ],
      "name": "tokenURI",
      "outputs": [
        {
          "internalType": "string",
          "name": "",
          "type": "string"
        }
      ],
      "stateMutability": "view",
      "type": "function"
    },
    {
      "inputs": [],
      "name": "totalSupply",
      "outputs": [
        {
          "internalType": "uint256",
          "name": "",
          "type": "uint256"
        }
      ],
      "stateMutability": "view",
      "type": "function"
    },
    {
      "inputs": [
        {
          "internalType": "address",
          "name": "from",
          "type": "address"
        },
        {
          "internalType": "address",
          "name": "to",
          "type": "address"
        },
        {
          "internalType": "uint256",
          "name": "tokenId",
          "type": "uint256"
        }
      ],
      "name": "transferFrom",
      "outputs": [],
      "stateMutability": "nonpayable",
      "type": "function"
    },
    {
      "inputs": [
        {
          "internalType": "address",
          "name": "newOwner",
          "type": "address"
        }
      ],
      "name": "transferOwnership",
      "outputs": [],
      "stateMutability": "nonpayable",
      "type": "function"
    },
    {
      "inputs": [],
      "name": "withdraw",
      "outputs": [],
      "stateMutability": "nonpayable",
      "type": "function"
    },
    {
      "inputs": [],
      "name": "withdrawWallet",
      "outputs": [
        {
          "internalType": "address payable",
          "name": "",
          "type": "address"
        }
      ],
      "stateMutability": "view",
      "type": "function"
    }
  ],
  "bytecode": "0x6017805460ff19908116600117909155601f80549091169055601060808181526f26bca7232a1021b7b63632b1ba34b7b760811b60a0908152610100604052600260c090815261052560f41b60e05291926200005e916000916200012d565b508051620000749060019060208401906200012d565b505050620000916200008b620000d760201b60201c565b620000db565b600a805460ff60a01b191690556512309ce54000600e5561012c600f55600360105560006016819055601181905560128190556013819055601481905560155562000210565b3390565b600a80546001600160a01b038381166001600160a01b0319831681179093556040519116919082907f8be0079c531659141344cd1fd0a4f28419497f9722a3daafe3b4186f6b6457e090600090a35050565b8280546200013b90620001d3565b90600052602060002090601f0160209004810192826200015f5760008555620001aa565b82601f106200017a57805160ff1916838001178555620001aa565b82800160010185558215620001aa579182015b82811115620001aa5782518255916020019190600101906200018d565b50620001b8929150620001bc565b5090565b5b80821115620001b85760008155600101620001bd565b600181811c90821680620001e857607f821691505b602082108114156200020a57634e487b7160e01b600052602260045260246000fd5b50919050565b61391880620002206000396000f3fe6080604052600436106102d05760003560e01c80636817c76c11610179578063a60a4382116100d6578063d05dcc6a1161008a578063e985e9c511610064578063e985e9c5146107e3578063f2fde38b1461082c578063fe0078ae1461084c57600080fd5b8063d05dcc6a14610788578063d111515d146107b8578063d5abeb01146107cd57600080fd5b8063c4746419116100bb578063c474641914610738578063c87b56dd1461074e578063cf880fea1461076e57600080fd5b8063a60a438214610702578063b88d4fde1461071857600080fd5b80638da5cb5b1161012d57806395d89b411161011257806395d89b41146106ad578063a22cb465146106c2578063a3047b37146106e257600080fd5b80638da5cb5b1461066f57806393b07b661461068d57600080fd5b8063715018a61161015e578063715018a6146105c857806385d178f4146105dd5780638b722536146105fd57600080fd5b80636817c76c1461059257806370a08231146105a857600080fd5b806323b872dd11610232578063453c2310116101e65780635c975abb116101c05780635c975abb146104f95780636352211e1461052957806363820f231461054957600080fd5b8063453c2310146104b05780634759827f146104c65780634f6ccce7146104d957600080fd5b80632f745c59116102175780632f745c591461045b5780633ccfd60b1461047b57806342842e0e1461049057600080fd5b806323b872dd1461042557806327d8104e1461044557600080fd5b8063095ea7b31161028957806318160ddd1161026e57806318160ddd146103da5780631ccba2c9146103ef5780632373ac221461040557600080fd5b8063095ea7b3146103a2578063108d0ea6146103c457600080fd5b806301ffc9a7116102ba57806301ffc9a71461032857806306fdde0314610348578063081812fc1461036a57600080fd5b8062a0634f146102d55780630116bc2d146102fe575b600080fd5b3480156102e157600080fd5b506102eb60165481565b6040519081526020015b60405180910390f35b34801561030a57600080fd5b506017546103189060ff1681565b60405190151581526020016102f5565b34801561033457600080fd5b50610318610343366004613294565b61088c565b34801561035457600080fd5b5061035d61089d565b6040516102f591906136ed565b34801561037657600080fd5b5061038a61038536600461337e565b61092f565b6040516001600160a01b0390911681526020016102f5565b3480156103ae57600080fd5b506103c26103bd366004613251565b6109da565b005b3480156103d057600080fd5b506102eb60115481565b3480156103e657600080fd5b506008546102eb565b3480156103fb57600080fd5b506102eb60145481565b34801561041157600080fd5b506103c261042036600461327a565b610b0c565b34801561043157600080fd5b506103c2610440366004613174565b610b79565b34801561045157600080fd5b506102eb60125481565b34801561046757600080fd5b506102eb610476366004613251565b610c00565b34801561048757600080fd5b506103c2610ca8565b34801561049c57600080fd5b506103c26104ab366004613174565b610da8565b3480156104bc57600080fd5b506102eb60105481565b6103c26104d43660046133d0565b610dc3565b3480156104e557600080fd5b506102eb6104f436600461337e565b6113fe565b34801561050557600080fd5b50600a5474010000000000000000000000000000000000000000900460ff16610318565b34801561053557600080fd5b5061038a61054436600461337e565b6114b0565b34801561055557600080fd5b5061057d610564366004613128565b601b602052600090815260409020805460019091015482565b604080519283526020830191909152016102f5565b34801561059e57600080fd5b506102eb600e5481565b3480156105b457600080fd5b506102eb6105c3366004613128565b61153b565b3480156105d457600080fd5b506103c26115d5565b3480156105e957600080fd5b5060195461038a906001600160a01b031681565b34801561060957600080fd5b5061064761061836600461337e565b6000908152601d6020526040902080546001820154600283015460038401546004909401549294919390929091565b604080519586526020860194909452928401919091526060830152608082015260a0016102f5565b34801561067b57600080fd5b50600a546001600160a01b031661038a565b34801561069957600080fd5b506103c26106a8366004613396565b61163b565b3480156106b957600080fd5b5061035d6116b2565b3480156106ce57600080fd5b506103c26106dd366004613228565b6116c1565b3480156106ee57600080fd5b506103c26106fd3660046132cc565b6116d0565b34801561070e57600080fd5b506102eb60135481565b34801561072457600080fd5b506103c26107333660046131af565b611838565b34801561074457600080fd5b506102eb60155481565b34801561075a57600080fd5b5061035d61076936600461337e565b6118c6565b34801561077a57600080fd5b50601f546103189060ff1681565b34801561079457600080fd5b506107a86107a336600461337e565b61193a565b6040516102f59493929190613700565b3480156107c457600080fd5b506103c2611b82565b3480156107d957600080fd5b506102eb600f5481565b3480156107ef57600080fd5b506103186107fe366004613142565b6001600160a01b03918216600090815260056020908152604080832093909416825291909152205460ff1690565b34801561083857600080fd5b506103c2610847366004613128565b611c3e565b61085f61085a366004613396565b611d1d565b604080519687526020870195909552938501929092526060840152608083015260a082015260c0016102f5565b60006108978261206a565b92915050565b6060600080546108ac906137f2565b80601f01602080910402602001604051908101604052809291908181526020018280546108d8906137f2565b80156109255780601f106108fa57610100808354040283529160200191610925565b820191906000526020600020905b81548152906001019060200180831161090857829003601f168201915b5050505050905090565b6000818152600260205260408120546001600160a01b03166109be5760405162461bcd60e51b815260206004820152602c60248201527f4552433732313a20617070726f76656420717565727920666f72206e6f6e657860448201527f697374656e7420746f6b656e000000000000000000000000000000000000000060648201526084015b60405180910390fd5b506000908152600460205260409020546001600160a01b031690565b60006109e5826114b0565b9050806001600160a01b0316836001600160a01b03161415610a6f5760405162461bcd60e51b815260206004820152602160248201527f4552433732313a20617070726f76616c20746f2063757272656e74206f776e6560448201527f720000000000000000000000000000000000000000000000000000000000000060648201526084016109b5565b336001600160a01b0382161480610a8b5750610a8b81336107fe565b610afd5760405162461bcd60e51b815260206004820152603860248201527f4552433732313a20617070726f76652063616c6c6572206973206e6f74206f7760448201527f6e6572206e6f7220617070726f76656420666f7220616c6c000000000000000060648201526084016109b5565b610b0783836120c0565b505050565b600a546001600160a01b03163314610b665760405162461bcd60e51b815260206004820181905260248201527f4f776e61626c653a2063616c6c6572206973206e6f7420746865206f776e657260448201526064016109b5565b6017805460ff1916911515919091179055565b610b83338261213b565b610bf55760405162461bcd60e51b815260206004820152603160248201527f4552433732313a207472616e736665722063616c6c6572206973206e6f74206f60448201527f776e6572206e6f7220617070726f76656400000000000000000000000000000060648201526084016109b5565b610b07838383612243565b6000610c0b8361153b565b8210610c7f5760405162461bcd60e51b815260206004820152602b60248201527f455243373231456e756d657261626c653a206f776e657220696e646578206f7560448201527f74206f6620626f756e647300000000000000000000000000000000000000000060648201526084016109b5565b506001600160a01b03919091166000908152600660209081526040808320938352929052205490565b600a546001600160a01b03163314610d025760405162461bcd60e51b815260206004820181905260248201527f4f776e61626c653a2063616c6c6572206973206e6f7420746865206f776e657260448201526064016109b5565b6019546040516000916001600160a01b03169047908381818185875af1925050503d8060008114610d4f576040519150601f19603f3d011682016040523d82523d6000602084013e610d54565b606091505b5050905080610da55760405162461bcd60e51b815260206004820152600f60248201527f7769746864726177206661696c6564000000000000000000000000000000000060448201526064016109b5565b50565b610b0783838360405180602001604052806000815250611838565b60175460ff16610e155760405162461bcd60e51b815260206004820152601360248201527f6d696e74696e67206e6f7420656e61626c65640000000000000000000000000060448201526064016109b5565b601054336000908152601b6020526040902060010154610e359088613758565b1115610e835760405162461bcd60e51b815260206004820152601f60248201527f45786365656473206d6178696d756d20616c6c6f7761626c65206d696e74730060448201526064016109b5565b336000908152601b602052604081206001018054889290610ea5908490613758565b90915550600090505b86811015610ffe57610ec4600c80546001019055565b6000610ecf600c5490565b9050601654601554601454601354601254601154610eed9190613758565b610ef79190613758565b610f019190613758565b610f0b9190613758565b610f159190613758565b81118015610f255750600f548111155b610f3f57634e487b7160e01b600052600160045260246000fd5b610f493382612428565b6000818152601c602052604090208054610feb918391610f68906137f2565b80601f0160208091040260200160405190810160405280929190818152602001828054610f94906137f2565b8015610fe15780601f10610fb657610100808354040283529160200191610fe1565b820191906000526020600020905b815481529060010190602001808311610fc457829003601f168201915b5050505050612442565b5080610ff68161382d565b915050610eae565b5060008511801561100f5750600285105b15611032576001601160008282546110279190613758565b909155506110ca9050565b6001851180156110425750600385105b156110745760016011600082825461105a9190613758565b925050819055506001601160008282546110279190613758565b84600314156110ca576001601160008282546110909190613758565b925050819055506001601160008282546110aa9190613758565b925050819055506001601160008282546110c49190613758565b90915550505b6000841180156110da5750600284105b156110fd576001601260008282546110f29190613758565b909155506111959050565b60018411801561110d5750600384105b1561113f576001601260008282546111259190613758565b925050819055506001601260008282546110f29190613758565b83600314156111955760016012600082825461115b9190613758565b925050819055506001601260008282546111759190613758565b9250508190555060016012600082825461118f9190613758565b90915550505b6000831180156111a55750600283105b156111c8576001601360008282546111bd9190613758565b909155506112609050565b6001831180156111d85750600383105b1561120a576001601360008282546111f09190613758565b925050819055506001601360008282546111bd9190613758565b8260031415611260576001601360008282546112269190613758565b925050819055506001601360008282546112409190613758565b9250508190555060016013600082825461125a9190613758565b90915550505b6000821180156112705750600282105b15611293576001601460008282546112889190613758565b9091555061132b9050565b6001821180156112a35750600382105b156112d5576001601460008282546112bb9190613758565b925050819055506001601460008282546112889190613758565b816003141561132b576001601460008282546112f19190613758565b9250508190555060016014600082825461130b9190613758565b925050819055506001601460008282546113259190613758565b90915550505b60008111801561133b5750600281105b1561135e576001601560008282546113539190613758565b909155506113f69050565b60018111801561136e5750600381105b156113a0576001601560008282546113869190613758565b925050819055506001601560008282546113539190613758565b80600314156113f6576001601560008282546113bc9190613758565b925050819055506001601560008282546113d69190613758565b925050819055506001601560008282546113f09190613758565b90915550505b505050505050565b600061140960085490565b821061147d5760405162461bcd60e51b815260206004820152602c60248201527f455243373231456e756d657261626c653a20676c6f62616c20696e646578206f60448201527f7574206f6620626f756e6473000000000000000000000000000000000000000060648201526084016109b5565b6008828154811061149e57634e487b7160e01b600052603260045260246000fd5b90600052602060002001549050919050565b6000818152600260205260408120546001600160a01b0316806108975760405162461bcd60e51b815260206004820152602960248201527f4552433732313a206f776e657220717565727920666f72206e6f6e657869737460448201527f656e7420746f6b656e000000000000000000000000000000000000000000000060648201526084016109b5565b60006001600160a01b0382166115b95760405162461bcd60e51b815260206004820152602a60248201527f4552433732313a2062616c616e636520717565727920666f7220746865207a6560448201527f726f20616464726573730000000000000000000000000000000000000000000060648201526084016109b5565b506001600160a01b031660009081526003602052604090205490565b600a546001600160a01b0316331461162f5760405162461bcd60e51b815260206004820181905260248201527f4f776e61626c653a2063616c6c6572206973206e6f7420746865206f776e657260448201526064016109b5565b61163960006124eb565b565b611649600d80546001019055565b6000601d6000611658600d5490565b81526020810191909152604001600020868155600181018690556002810185905560038101849055600481018390559050601e611694600d5490565b81546001810183556000928352602090922090910155505050505050565b6060600180546108ac906137f2565b6116cc33838361254a565b5050565b601f5460ff16156117235760405162461bcd60e51b815260206004820152601e60248201527f4d65746164617461206973207065726d616e656e746c792066726f7a656e000060448201526064016109b5565b6000848152600260205260409020546001600160a01b03166117875760405162461bcd60e51b815260206004820152601460248201527f546f6b656e20646f6573206e6f7420657869742100000000000000000000000060448201526064016109b5565b604080516080810182528481526020808201859052818301889052606082018490526000878152601a825292909220815180518994869493926117d09284929190910190612fc7565b5060208281015180516117e99260018501920190612fc7565b5060408201518051611805916002840191602090910190612fc7565b5060608201518051611821916003840191602090910190612fc7565b5090505061182f8688612442565b50505050505050565b611842338361213b565b6118b45760405162461bcd60e51b815260206004820152603160248201527f4552433732313a207472616e736665722063616c6c6572206973206e6f74206f60448201527f776e6572206e6f7220617070726f76656400000000000000000000000000000060648201526084016109b5565b6118c084848484612619565b50505050565b6000818152601a60209081526040808320905160609392611910926118fc929091600183019160038401916002850191016134d6565b6040516020818303038152906040526126a2565b905080604051602001611923919061366c565b604051602081830303815290604052915050919050565b601a60205260009081526040902080548190611955906137f2565b80601f0160208091040260200160405190810160405280929190818152602001828054611981906137f2565b80156119ce5780601f106119a3576101008083540402835291602001916119ce565b820191906000526020600020905b8154815290600101906020018083116119b157829003601f168201915b5050505050908060010180546119e3906137f2565b80601f0160208091040260200160405190810160405280929190818152602001828054611a0f906137f2565b8015611a5c5780601f10611a3157610100808354040283529160200191611a5c565b820191906000526020600020905b815481529060010190602001808311611a3f57829003601f168201915b505050505090806002018054611a71906137f2565b80601f0160208091040260200160405190810160405280929190818152602001828054611a9d906137f2565b8015611aea5780601f10611abf57610100808354040283529160200191611aea565b820191906000526020600020905b815481529060010190602001808311611acd57829003601f168201915b505050505090806003018054611aff906137f2565b80601f0160208091040260200160405190810160405280929190818152602001828054611b2b906137f2565b8015611b785780601f10611b4d57610100808354040283529160200191611b78565b820191906000526020600020905b815481529060010190602001808311611b5b57829003601f168201915b5050505050905084565b600a546001600160a01b03163314611bdc5760405162461bcd60e51b815260206004820181905260248201527f4f776e61626c653a2063616c6c6572206973206e6f7420746865206f776e657260448201526064016109b5565b601f5460ff1615611c2f5760405162461bcd60e51b815260206004820152601a60248201527f4d6574616461746120697320616c72656164792066726f7a656e00000000000060448201526064016109b5565b601f805460ff19166001179055565b600a546001600160a01b03163314611c985760405162461bcd60e51b815260206004820181905260248201527f4f776e61626c653a2063616c6c6572206973206e6f7420746865206f776e657260448201526064016109b5565b6001600160a01b038116611d145760405162461bcd60e51b815260206004820152602660248201527f4f776e61626c653a206e6577206f776e657220697320746865207a65726f206160448201527f646472657373000000000000000000000000000000000000000000000000000060648201526084016109b5565b610da5816124eb565b600080600080600080600387898b8d8f611d379190613758565b611d419190613758565b611d4b9190613758565b611d559190613758565b1115611dc95760405162461bcd60e51b815260206004820152603b60248201527f45786365656473204d6178696d756d204d696e6974696e67204c696d6974207460448201527f6f74616c20596f752043616e204d696e6974204a75737420332021000000000060648201526084016109b5565b60646011548c611dd99190613758565b1115611e355760405162461bcd60e51b815260206004820152602560248201527f45786365656473206d6178696d756d20534d414c4c20616c6c6f7761626c65206044820152646d696e747360d81b60648201526084016109b5565b60506012548b611e459190613758565b1115611eb95760405162461bcd60e51b815260206004820152602660248201527f45786365656473206d6178696d756d204d454449554d20616c6c6f7761626c6560448201527f206d696e7473000000000000000000000000000000000000000000000000000060648201526084016109b5565b603c6013548a611ec99190613758565b1115611f255760405162461bcd60e51b815260206004820152602560248201527f45786365656473206d6178696d756d204c4152474520616c6c6f7761626c65206044820152646d696e747360d81b60648201526084016109b5565b600a60145489611f359190613758565b1115611f915760405162461bcd60e51b815260206004820152602560248201527f45786365656473206d6178696d756d20554c54524120616c6c6f7761626c65206044820152646d696e747360d81b60648201526084016109b5565b602860155488611fa19190613758565b11156120145760405162461bcd60e51b8152602060048201526024808201527f45786365656473206d6178696d756d204d45474120616c6c6f7761626c65206d60448201527f696e74730000000000000000000000000000000000000000000000000000000060648201526084016109b5565b508993508892508791508690508580828461202f8789613758565b6120399190613758565b6120439190613758565b61204d9190613758565b955061205d868c8c8c8c8c610dc3565b9550955095509550955095565b60007fffffffff0000000000000000000000000000000000000000000000000000000082167f780e9d6300000000000000000000000000000000000000000000000000000000148061089757506108978261286b565b6000818152600460205260409020805473ffffffffffffffffffffffffffffffffffffffff19166001600160a01b0384169081179091558190612102826114b0565b6001600160a01b03167f8c5be1e5ebec7d5bd14f71427d1e84f3dd0314c0f7b2291e5b200ac8c7c3b92560405160405180910390a45050565b6000818152600260205260408120546001600160a01b03166121c55760405162461bcd60e51b815260206004820152602c60248201527f4552433732313a206f70657261746f7220717565727920666f72206e6f6e657860448201527f697374656e7420746f6b656e000000000000000000000000000000000000000060648201526084016109b5565b60006121d0836114b0565b9050806001600160a01b0316846001600160a01b0316148061221757506001600160a01b0380821660009081526005602090815260408083209388168352929052205460ff165b8061223b5750836001600160a01b03166122308461092f565b6001600160a01b0316145b949350505050565b826001600160a01b0316612256826114b0565b6001600160a01b0316146122d25760405162461bcd60e51b815260206004820152602560248201527f4552433732313a207472616e736665722066726f6d20696e636f72726563742060448201527f6f776e657200000000000000000000000000000000000000000000000000000060648201526084016109b5565b6001600160a01b03821661234d5760405162461bcd60e51b8152602060048201526024808201527f4552433732313a207472616e7366657220746f20746865207a65726f2061646460448201527f726573730000000000000000000000000000000000000000000000000000000060648201526084016109b5565b61235883838361294e565b6123636000826120c0565b6001600160a01b038316600090815260036020526040812080546001929061238c9084906137af565b90915550506001600160a01b03821660009081526003602052604081208054600192906123ba908490613758565b9091555050600081815260026020526040808220805473ffffffffffffffffffffffffffffffffffffffff19166001600160a01b0386811691821790925591518493918716917fddf252ad1be2c89b69c2b068fc378daa952ba7f163c4a11628f55a4df523b3ef91a4505050565b6116cc8282604051806020016040528060008152506129c4565b6000828152600260205260409020546001600160a01b03166124cc5760405162461bcd60e51b815260206004820152602e60248201527f45524337323155524953746f726167653a2055524920736574206f66206e6f6e60448201527f6578697374656e7420746f6b656e00000000000000000000000000000000000060648201526084016109b5565b6000828152600b602090815260409091208251610b0792840190612fc7565b600a80546001600160a01b0383811673ffffffffffffffffffffffffffffffffffffffff19831681179093556040519116919082907f8be0079c531659141344cd1fd0a4f28419497f9722a3daafe3b4186f6b6457e090600090a35050565b816001600160a01b0316836001600160a01b031614156125ac5760405162461bcd60e51b815260206004820152601960248201527f4552433732313a20617070726f766520746f2063616c6c65720000000000000060448201526064016109b5565b6001600160a01b03838116600081815260056020908152604080832094871680845294825291829020805460ff191686151590811790915591519182527f17307eab39ab6107e8899845ad3d59bd9653f200f220920489ca2b5937696c31910160405180910390a3505050565b612624848484612243565b61263084848484612a4d565b6118c05760405162461bcd60e51b815260206004820152603260248201527f4552433732313a207472616e7366657220746f206e6f6e20455243373231526560448201527f63656976657220696d706c656d656e746572000000000000000000000000000060648201526084016109b5565b60608151600014156126c257505060408051602081019091526000815290565b60006040518060600160405280604081526020016138a360409139905060006003845160026126f19190613758565b6126fb9190613770565b612706906004613790565b90506000612715826020613758565b67ffffffffffffffff81111561273b57634e487b7160e01b600052604160045260246000fd5b6040519080825280601f01601f191660200182016040528015612765576020820181803683370190505b509050818152600183018586518101602084015b818310156127d1576003830192508251603f8160121c168501518253600182019150603f81600c1c168501518253600182019150603f8160061c168501518253600182019150603f8116850151825350600101612779565b6003895106600181146127eb57600281146128355761285d565b7f3d3d0000000000000000000000000000000000000000000000000000000000007ffffffffffffffffffffffffffffffffffffffffffffffffffffffffffffffffe83015261285d565b7f3d000000000000000000000000000000000000000000000000000000000000006000198301525b509398975050505050505050565b60007fffffffff0000000000000000000000000000000000000000000000000000000082167f80ac58cd0000000000000000000000000000000000000000000000000000000014806128fe57507fffffffff0000000000000000000000000000000000000000000000000000000082167f5b5e139f00000000000000000000000000000000000000000000000000000000145b8061089757507f01ffc9a7000000000000000000000000000000000000000000000000000000007fffffffff00000000000000000000000000000000000000000000000000000000831614610897565b600a5474010000000000000000000000000000000000000000900460ff16156129b95760405162461bcd60e51b815260206004820152601060248201527f5061757361626c653a207061757365640000000000000000000000000000000060448201526064016109b5565b610b07838383612bfa565b6129ce8383612cb2565b6129db6000848484612a4d565b610b075760405162461bcd60e51b815260206004820152603260248201527f4552433732313a207472616e7366657220746f206e6f6e20455243373231526560448201527f63656976657220696d706c656d656e746572000000000000000000000000000060648201526084016109b5565b60006001600160a01b0384163b15612bef576040517f150b7a020000000000000000000000000000000000000000000000000000000081526001600160a01b0385169063150b7a0290612aaa9033908990889088906004016136b1565b602060405180830381600087803b158015612ac457600080fd5b505af1925050508015612af4575060408051601f3d908101601f19168201909252612af1918101906132b0565b60015b612ba4573d808015612b22576040519150601f19603f3d011682016040523d82523d6000602084013e612b27565b606091505b508051612b9c5760405162461bcd60e51b815260206004820152603260248201527f4552433732313a207472616e7366657220746f206e6f6e20455243373231526560448201527f63656976657220696d706c656d656e746572000000000000000000000000000060648201526084016109b5565b805181602001fd5b7fffffffff00000000000000000000000000000000000000000000000000000000167f150b7a020000000000000000000000000000000000000000000000000000000014905061223b565b506001949350505050565b6001600160a01b038316612c5557612c5081600880546000838152600960205260408120829055600182018355919091527ff3f7a9fe364faab93b216da50a3214154f22a0a2b415b23a84c8169e8b636ee30155565b612c78565b816001600160a01b0316836001600160a01b031614612c7857612c788382612e0d565b6001600160a01b038216612c8f57610b0781612eaa565b826001600160a01b0316826001600160a01b031614610b0757610b078282612f83565b6001600160a01b038216612d085760405162461bcd60e51b815260206004820181905260248201527f4552433732313a206d696e7420746f20746865207a65726f206164647265737360448201526064016109b5565b6000818152600260205260409020546001600160a01b031615612d6d5760405162461bcd60e51b815260206004820152601c60248201527f4552433732313a20746f6b656e20616c7265616479206d696e7465640000000060448201526064016109b5565b612d796000838361294e565b6001600160a01b0382166000908152600360205260408120805460019290612da2908490613758565b9091555050600081815260026020526040808220805473ffffffffffffffffffffffffffffffffffffffff19166001600160a01b03861690811790915590518392907fddf252ad1be2c89b69c2b068fc378daa952ba7f163c4a11628f55a4df523b3ef908290a45050565b60006001612e1a8461153b565b612e2491906137af565b600083815260076020526040902054909150808214612e77576001600160a01b03841660009081526006602090815260408083208584528252808320548484528184208190558352600790915290208190555b5060009182526007602090815260408084208490556001600160a01b039094168352600681528383209183525290812055565b600854600090612ebc906001906137af565b60008381526009602052604081205460088054939450909284908110612ef257634e487b7160e01b600052603260045260246000fd5b906000526020600020015490508060088381548110612f2157634e487b7160e01b600052603260045260246000fd5b6000918252602080832090910192909255828152600990915260408082208490558582528120556008805480612f6757634e487b7160e01b600052603160045260246000fd5b6001900381819060005260206000200160009055905550505050565b6000612f8e8361153b565b6001600160a01b039093166000908152600660209081526040808320868452825280832085905593825260079052919091209190915550565b828054612fd3906137f2565b90600052602060002090601f016020900481019282612ff5576000855561303b565b82601f1061300e57805160ff191683800117855561303b565b8280016001018555821561303b579182015b8281111561303b578251825591602001919060010190613020565b5061304792915061304b565b5090565b5b80821115613047576000815560010161304c565b600067ffffffffffffffff8084111561307b5761307b61385e565b604051601f8501601f19908116603f011681019082821181831017156130a3576130a361385e565b816040528093508581528686860111156130bc57600080fd5b858560208301376000602087830101525050509392505050565b80356001600160a01b03811681146130ed57600080fd5b919050565b803580151581146130ed57600080fd5b600082601f830112613112578081fd5b61312183833560208501613060565b9392505050565b600060208284031215613139578081fd5b613121826130d6565b60008060408385031215613154578081fd5b61315d836130d6565b915061316b602084016130d6565b90509250929050565b600080600060608486031215613188578081fd5b613191846130d6565b925061319f602085016130d6565b9150604084013590509250925092565b600080600080608085870312156131c4578081fd5b6131cd856130d6565b93506131db602086016130d6565b925060408501359150606085013567ffffffffffffffff8111156131fd578182fd5b8501601f8101871361320d578182fd5b61321c87823560208401613060565b91505092959194509250565b6000806040838503121561323a578182fd5b613243836130d6565b915061316b602084016130f2565b60008060408385031215613263578182fd5b61326c836130d6565b946020939093013593505050565b60006020828403121561328b578081fd5b613121826130f2565b6000602082840312156132a5578081fd5b813561312181613874565b6000602082840312156132c1578081fd5b815161312181613874565b600080600080600060a086880312156132e3578081fd5b853567ffffffffffffffff808211156132fa578283fd5b61330689838a01613102565b9650602088013595506040880135915080821115613322578283fd5b61332e89838a01613102565b94506060880135915080821115613343578283fd5b61334f89838a01613102565b93506080880135915080821115613364578283fd5b5061337188828901613102565b9150509295509295909350565b60006020828403121561338f578081fd5b5035919050565b600080600080600060a086880312156133ad578081fd5b505083359560208501359550604085013594606081013594506080013592509050565b60008060008060008060c087890312156133e8578384fd5b505084359660208601359650604086013595606081013595506080810135945060a0013592509050565b6000815180845261342a8160208601602086016137c6565b601f01601f19169290920160200192915050565b8054600090600181811c908083168061345857607f831692505b602080841082141561347857634e487b7160e01b86526022600452602486fd5b81801561348c576001811461349d576134ca565b60ff198616895284890196506134ca565b60008881526020902060005b868110156134c25781548b8201529085019083016134a9565b505084890196505b50505050505092915050565b7f7b226e616d65223a20220000000000000000000000000000000000000000000081526000613508600a83018761343e565b7f222c00000000000000000000000000000000000000000000000000000000000081527f2261747472696275746573223a205b7b2274726169745f74797065223a20226460028201527f65736372697074696f6e222c202276616c7565223a20000000000000000000006022820152613584603882018761343e565b90507f7d2c0000000000000000000000000000000000000000000000000000000000008082527f7b2274726169745f74797065223a2022696d616765222c202276616c7565223a60028301527f20000000000000000000000000000000000000000000000000000000000000006022830152613603602383018761343e565b9081527f7b2274726169745f74797065223a2022757269222c202276616c7565223a20006002820152905061363b602182018561343e565b7f7d2c5d7d000000000000000000000000000000000000000000000000000000008152600401979650505050505050565b7f646174613a6170706c69636174696f6e2f6a736f6e3b6261736536342c0000008152600082516136a481601d8501602087016137c6565b91909101601d0192915050565b60006001600160a01b038087168352808616602084015250836040830152608060608301526136e36080830184613412565b9695505050505050565b6020815260006131216020830184613412565b6080815260006137136080830187613412565b82810360208401526137258187613412565b905082810360408401526137398186613412565b9050828103606084015261374d8185613412565b979650505050505050565b6000821982111561376b5761376b613848565b500190565b60008261378b57634e487b7160e01b81526012600452602481fd5b500490565b60008160001904831182151516156137aa576137aa613848565b500290565b6000828210156137c1576137c1613848565b500390565b60005b838110156137e15781810151838201526020016137c9565b838111156118c05750506000910152565b600181811c9082168061380657607f821691505b6020821081141561382757634e487b7160e01b600052602260045260246000fd5b50919050565b600060001982141561384157613841613848565b5060010190565b634e487b7160e01b600052601160045260246000fd5b634e487b7160e01b600052604160045260246000fd5b7fffffffff0000000000000000000000000000000000000000000000000000000081168114610da557600080fdfe4142434445464748494a4b4c4d4e4f505152535455565758595a6162636465666768696a6b6c6d6e6f707172737475767778797a303132333435363738392b2fa2646970667358221220bdcee3bd87436927569e5a3d2d3ea80a8288c8a3facd351892d3a0e9fae4e05964736f6c63430008040033",
  "linkReferences": {},
  "deployedLinkReferences": {}
}